{
  "address": "0xab16A69A5a8c12C732e0DEFF4BE56A70bb64c926",
  "abi": [
    {
      "inputs": [
        {
          "internalType": "address",
          "name": "tokenAddress",
          "type": "address"
        }
      ],
      "stateMutability": "nonpayable",
      "type": "constructor"
    },
    {
      "anonymous": false,
      "inputs": [
        {
          "indexed": false,
          "internalType": "address",
          "name": "buyer",
          "type": "address"
        },
        {
          "indexed": false,
          "internalType": "uint256",
          "name": "amountOfETH",
          "type": "uint256"
        },
        {
          "indexed": false,
          "internalType": "uint256",
          "name": "amountOfTokens",
          "type": "uint256"
        }
      ],
      "name": "BuyTokens",
      "type": "event"
    },
    {
      "anonymous": false,
      "inputs": [
        {
          "indexed": true,
          "internalType": "address",
          "name": "previousOwner",
          "type": "address"
        },
        {
          "indexed": true,
          "internalType": "address",
          "name": "newOwner",
          "type": "address"
        }
      ],
      "name": "OwnershipTransferred",
      "type": "event"
    },
    {
      "anonymous": false,
      "inputs": [
        {
          "indexed": false,
          "internalType": "address",
          "name": "seller",
          "type": "address"
        },
        {
          "indexed": false,
          "internalType": "uint256",
          "name": "amountOfTokens",
          "type": "uint256"
        },
        {
          "indexed": false,
          "internalType": "uint256",
          "name": "soldAmount",
          "type": "uint256"
        }
      ],
      "name": "SellTokens",
      "type": "event"
    },
    {
      "inputs": [],
      "name": "buyTokens",
      "outputs": [],
      "stateMutability": "payable",
      "type": "function"
    },
    {
      "inputs": [],
      "name": "owner",
      "outputs": [
        {
          "internalType": "address",
          "name": "",
          "type": "address"
        }
      ],
      "stateMutability": "view",
      "type": "function"
    },
    {
      "inputs": [],
      "name": "renounceOwnership",
      "outputs": [],
      "stateMutability": "nonpayable",
      "type": "function"
    },
    {
      "inputs": [
        {
          "internalType": "uint256",
          "name": "amountOfTokens",
          "type": "uint256"
        }
      ],
      "name": "sellTokens",
      "outputs": [],
      "stateMutability": "nonpayable",
      "type": "function"
    },
    {
      "inputs": [],
      "name": "tokensPerEth",
      "outputs": [
        {
          "internalType": "uint256",
          "name": "",
          "type": "uint256"
        }
      ],
      "stateMutability": "view",
      "type": "function"
    },
    {
      "inputs": [
        {
          "internalType": "address",
          "name": "newOwner",
          "type": "address"
        }
      ],
      "name": "transferOwnership",
      "outputs": [],
      "stateMutability": "nonpayable",
      "type": "function"
    },
    {
      "inputs": [],
      "name": "withdraw",
      "outputs": [],
      "stateMutability": "nonpayable",
      "type": "function"
    }
  ],
  "transactionHash": "0x2ebdf8dd2518aaf076414fdfb3b0689d21db0aba2801e9726a2b912999087677",
  "args": [
    "0xc0F115A19107322cFBf1cDBC7ea011C19EbDB4F8"
  ],
  "solcInputHash": "be91e02584c3fc88f2d73776d4b22635",
  "bytecode": "0x608060405234801561001057600080fd5b506040516109b33803806109b38339818101604052602081101561003357600080fd5b505160006100486001600160e01b036100b716565b600080546001600160a01b0319166001600160a01b0383169081178255604051929350917f8be0079c531659141344cd1fd0a4f28419497f9722a3daafe3b4186f6b6457e0908290a350600180546001600160a01b0319166001600160a01b03929092169190911790556100bb565b3390565b6108e9806100ca6000396000f3fe6080604052600436106100705760003560e01c80638da5cb5b1161004e5780638da5cb5b146100cb578063cbdd69b5146100fc578063d0febe4c14610123578063f2fde38b1461012b57610070565b80633ccfd60b146100755780636c11bcd31461008c578063715018a6146100b6575b600080fd5b34801561008157600080fd5b5061008a61015e565b005b34801561009857600080fd5b5061008a600480360360208110156100af57600080fd5b5035610201565b3480156100c257600080fd5b5061008a6104e1565b3480156100d757600080fd5b506100e061059f565b604080516001600160a01b039092168252519081900360200190f35b34801561010857600080fd5b506101116105ae565b60408051918252519081900360200190f35b61008a6105b3565b34801561013757600080fd5b5061008a6004803603602081101561014e57600080fd5b50356001600160a01b031661068b565b61016661079f565b6001600160a01b031661017761059f565b6001600160a01b0316146101d2576040805162461bcd60e51b815260206004820181905260248201527f4f776e61626c653a2063616c6c6572206973206e6f7420746865206f776e6572604482015290519081900360640190fd5b60405133904780156108fc02916000818181858888f193505050501580156101fe573d6000803e3d6000fd5b50565b6000811161024d576040805162461bcd60e51b8152602060048201526014602482015273496e73756666696369656e7420746f6b656e732160601b604482015290519081900360640190fd5b60015460408051636eb1769f60e11b8152336004820152306024820152905183926001600160a01b03169163dd62ed3e916044808301926020929190829003018186803b15801561029d57600080fd5b505afa1580156102b1573d6000803e3d6000fd5b505050506040513d60208110156102c757600080fd5b5051101561031c576040805162461bcd60e51b815260206004820152601860248201527f546f6b656e20616c6c6f77616e636520746f6f206c6f77210000000000000000604482015290519081900360640190fd5b600061032f82606463ffffffff6107a316565b600154604080516323b872dd60e01b81523360048201523060248201526044810186905290519293506000926001600160a01b03909216916323b872dd9160648082019260209290919082900301818787803b15801561038e57600080fd5b505af11580156103a2573d6000803e3d6000fd5b505050506040513d60208110156103b857600080fd5b5051905080610407576040805162461bcd60e51b8152602060048201526016602482015275546f6b656e207472616e73666572206661696c65642160501b604482015290519081900360640190fd5b604051600090339084908381818185875af1925050503d8060008114610449576040519150601f19603f3d011682016040523d82523d6000602084013e61044e565b606091505b505090508061049b576040805162461bcd60e51b81526020600482015260146024820152732330b4b632b2103a379039b2b7321022ba3432b960611b604482015290519081900360640190fd5b604080513381526020810186905280820185905290517fa24838acd4af5195a2396965dae5abf54e84e8c19f5698bb966ae64e29994ee59181900360600190a150505050565b6104e961079f565b6001600160a01b03166104fa61059f565b6001600160a01b031614610555576040805162461bcd60e51b815260206004820181905260248201527f4f776e61626c653a2063616c6c6572206973206e6f7420746865206f776e6572604482015290519081900360640190fd5b600080546040516001600160a01b03909116907f8be0079c531659141344cd1fd0a4f28419497f9722a3daafe3b4186f6b6457e0908390a3600080546001600160a01b0319169055565b6000546001600160a01b031690565b606481565b60006105c634606463ffffffff61080c16565b6001546040805163a9059cbb60e01b81523360048201526024810184905290519293506001600160a01b039091169163a9059cbb916044808201926020929091908290030181600087803b15801561061d57600080fd5b505af1158015610631573d6000803e3d6000fd5b505050506040513d602081101561064757600080fd5b50506040805133815234602082015280820183905290517f0a37b72bb67eee30e09084cf386f8a17817c57f620c3ab95fb25d6a20356ec779181900360600190a150565b61069361079f565b6001600160a01b03166106a461059f565b6001600160a01b0316146106ff576040805162461bcd60e51b815260206004820181905260248201527f4f776e61626c653a2063616c6c6572206973206e6f7420746865206f776e6572604482015290519081900360640190fd5b6001600160a01b0381166107445760405162461bcd60e51b815260040180806020018281038252602681526020018061086d6026913960400191505060405180910390fd5b600080546040516001600160a01b03808516939216917f8be0079c531659141344cd1fd0a4f28419497f9722a3daafe3b4186f6b6457e091a3600080546001600160a01b0319166001600160a01b0392909216919091179055565b3390565b60008082116107f9576040805162461bcd60e51b815260206004820152601a60248201527f536166654d6174683a206469766973696f6e206279207a65726f000000000000604482015290519081900360640190fd5b81838161080257fe5b0490505b92915050565b60008261081b57506000610806565b8282028284828161082857fe5b04146108655760405162461bcd60e51b81526004018080602001828103825260218152602001806108936021913960400191505060405180910390fd5b939250505056fe4f776e61626c653a206e6577206f776e657220697320746865207a65726f2061646472657373536166654d6174683a206d756c7469706c69636174696f6e206f766572666c6f77a2646970667358221220f67738166759585bb16408c3eb859735204ef3312051c1db02dde2265ca9f69764736f6c63430006070033",
  "devdoc": {
    "methods": {
      "owner()": {
        "details": "Returns the address of the current owner."
      },
      "renounceOwnership()": {
        "details": "Leaves the contract without owner. It will not be possible to call `onlyOwner` functions anymore. Can only be called by the current owner.     * NOTE: Renouncing ownership will leave the contract without an owner, thereby removing any functionality that is only available to the owner."
      },
      "transferOwnership(address)": {
        "details": "Transfers ownership of the contract to a new account (`newOwner`). Can only be called by the current owner."
      }
    }
  },
  "userdoc": {
    "methods": {}
  },
  "storageLayout": {
    "storage": [
      {
        "astId": 7,
        "contract": "contracts/Vendor.sol:Vendor",
        "label": "_owner",
        "offset": 0,
        "slot": "0",
        "type": "t_address"
      },
      {
        "astId": 1080,
        "contract": "contracts/Vendor.sol:Vendor",
        "label": "yourToken",
        "offset": 0,
        "slot": "1",
        "type": "t_contract(YourToken)1259"
      }
    ],
    "types": {
      "t_address": {
        "encoding": "inplace",
        "label": "address",
        "numberOfBytes": "20"
      },
      "t_contract(YourToken)1259": {
        "encoding": "inplace",
        "label": "contract YourToken",
        "numberOfBytes": "20"
      }
    }
  }
}